{
  "contractName": "Ballot",
  "abi": [
    {
      "constant": false,
      "inputs": [
        {
          "name": "addr",
          "type": "address"
        }
      ],
      "name": "isChair",
      "outputs": [
        {
          "name": "",
          "type": "bool"
        }
      ],
      "payable": false,
      "stateMutability": "nonpayable",
      "type": "function"
    },
    {
      "constant": false,
      "inputs": [
        {
          "name": "to",
          "type": "address"
        },
        {
          "name": "amount",
          "type": "uint256"
        }
      ],
      "name": "sendCoin",
      "outputs": [
        {
          "name": "",
          "type": "bool"
        }
      ],
      "payable": false,
      "stateMutability": "nonpayable",
      "type": "function"
    },
    {
      "constant": false,
      "inputs": [
        {
          "name": "from",
          "type": "address"
        },
        {
          "name": "hash_phone",
          "type": "bytes32"
        },
        {
          "name": "id_Program",
          "type": "uint256"
        },
        {
          "name": "id_actor",
          "type": "uint256"
        }
      ],
      "name": "vote",
      "outputs": [
        {
          "name": "",
          "type": "bool"
        }
      ],
      "payable": false,
      "stateMutability": "nonpayable",
      "type": "function"
    },
    {
      "constant": false,
      "inputs": [
        {
          "name": "addr",
          "type": "address"
        }
      ],
      "name": "getBalance",
      "outputs": [
        {
          "name": "",
          "type": "uint256"
        }
      ],
      "payable": false,
      "stateMutability": "nonpayable",
      "type": "function"
    },
    {
      "inputs": [],
      "payable": false,
      "stateMutability": "nonpayable",
      "type": "constructor"
    }
  ],
  "bytecode": "0x6060604052341561000f57600080fd5b336000806101000a81548173ffffffffffffffffffffffffffffffffffffffff021916908373ffffffffffffffffffffffffffffffffffffffff160217905550612710600160008060009054906101000a900473ffffffffffffffffffffffffffffffffffffffff1673ffffffffffffffffffffffffffffffffffffffff1673ffffffffffffffffffffffffffffffffffffffff1681526020019081526020016000208190555061054d806100c56000396000f300606060405260043610610062576000357c0100000000000000000000000000000000000000000000000000000000900463ffffffff168063034eb9381461006757806390b98a11146100b8578063e9b7204614610112578063f8b2cb4f14610182575b600080fd5b341561007257600080fd5b61009e600480803573ffffffffffffffffffffffffffffffffffffffff169060200190919050506101cf565b604051808215151515815260200191505060405180910390f35b34156100c357600080fd5b6100f8600480803573ffffffffffffffffffffffffffffffffffffffff16906020019091908035906020019091905050610228565b604051808215151515815260200191505060405180910390f35b341561011d57600080fd5b610168600480803573ffffffffffffffffffffffffffffffffffffffff16906020019091908035600019169060200190919080359060200190919080359060200190919050506103b8565b604051808215151515815260200191505060405180910390f35b341561018d57600080fd5b6101b9600480803573ffffffffffffffffffffffffffffffffffffffff169060200190919050506104d8565b6040518082815260200191505060405180910390f35b60008060009054906101000a900473ffffffffffffffffffffffffffffffffffffffff1673ffffffffffffffffffffffffffffffffffffffff168273ffffffffffffffffffffffffffffffffffffffff16149050919050565b60008060009054906101000a900473ffffffffffffffffffffffffffffffffffffffff1673ffffffffffffffffffffffffffffffffffffffff163373ffffffffffffffffffffffffffffffffffffffff1614806102e4575081600160008060009054906101000a900473ffffffffffffffffffffffffffffffffffffffff1673ffffffffffffffffffffffffffffffffffffffff1673ffffffffffffffffffffffffffffffffffffffff16815260200190815260200160002054105b156102f257600090506103b2565b81600160008060009054906101000a900473ffffffffffffffffffffffffffffffffffffffff1673ffffffffffffffffffffffffffffffffffffffff1673ffffffffffffffffffffffffffffffffffffffff1681526020019081526020016000206000828254039250508190555081600160008573ffffffffffffffffffffffffffffffffffffffff1673ffffffffffffffffffffffffffffffffffffffff16815260200190815260200160002060008282540192505081905550600190505b92915050565b6000806000600360008681526020019081526020016000209150858260050160008973ffffffffffffffffffffffffffffffffffffffff1673ffffffffffffffffffffffffffffffffffffffff16815260200190815260200160002060000181600019169055508160050160008873ffffffffffffffffffffffffffffffffffffffff1673ffffffffffffffffffffffffffffffffffffffff1681526020019081526020016000206001016000815480929190600101919050559050838260050160008973ffffffffffffffffffffffffffffffffffffffff1673ffffffffffffffffffffffffffffffffffffffff1681526020019081526020016000206002016000838152602001908152602001600020819055505050949350505050565b6000600160008373ffffffffffffffffffffffffffffffffffffffff1673ffffffffffffffffffffffffffffffffffffffff1681526020019081526020016000205490509190505600a165627a7a723058207bf9c81ce80bb1a85edd2d45a70e7cc2666cc449973ecc26162cb2dcf69ae5f80029",
  "source": "pragma solidity ^0.4.2;\n\ncontract Ballot {\n    address chairperson;\n    mapping (address => uint) balances;\n    \n    struct Voter {\n        bytes32 hash_phone;\n        uint number_actor;\n        mapping(uint => uint) actors;\n    }\n\n    struct NSP {\n        bytes32 hash_password;\n        bytes32 name;\n    }\n\n    struct Actor {\n        bytes32 name;\n        uint vote_count;\n    }\n\n    struct Program {\n        bytes32 name;\n        uint start;\n        uint end;\n        uint number_actors;\n        mapping (uint => Actor) actors;\n        mapping(address => Voter) voters;\n    }\n\n    uint number_programs;\n    mapping(uint => Program) Programs;\n    mapping(uint => NSP) nsps;\n\n    function Ballot() {\n        chairperson = msg.sender;\n        balances[chairperson] = 10000;\n    }\n\n    modifier onlyChairPerson() {\n        require(msg.sender == chairperson);\n        _;\n    }\n\n    function sendCoin(address to, uint amount) returns (bool) {\n        if(msg.sender == chairperson || balances[chairperson] < amount) {\n            return false;\n        }\n        balances[chairperson] -= amount;\n        balances[to] += amount;\n        return true;\n    } \n\n    function vote(address from, bytes32 hash_phone, uint id_Program, uint id_actor) returns (bool) {\n        //NOTE require exist Program\n        //NOTE require exist actor\n        Program storage e = Programs[id_Program];\n        e.voters[from].hash_phone = hash_phone;\n        uint index = e.voters[from].number_actor++;\n        e.voters[from].actors[index] = id_actor;\n    }\n\n    function getBalance(address addr) returns (uint) {\n        return balances[addr];\n    }\n\n    function isChair (address addr) returns (bool) {\n        return addr == chairperson;\n    }\n}",
  "sourcePath": "/home/taohansamu/L-BlockChain/angular4-truffle-starter-dapp/contracts/Ballot.sol",
  "compiler": {
    "name": "solc",
    "version": "0.4.18+commit.9cf6e910.Emscripten.clang"
  },
  "schemaVersion": "1.0.1",
  "updatedAt": "2017-11-24T22:37:45.570Z"
}