{
  "contractName": "Ballot",
  "abi": [
    {
      "constant": false,
      "inputs": [
        {
          "name": "name",
          "type": "bytes32"
        },
        {
          "name": "start",
          "type": "uint256"
        },
        {
          "name": "end",
          "type": "uint256"
        },
        {
          "name": "number_actor",
          "type": "uint256"
        }
      ],
      "name": "createProgram",
      "outputs": [
        {
          "name": "",
          "type": "bool"
        }
      ],
      "payable": false,
      "stateMutability": "nonpayable",
      "type": "function"
    },
    {
      "constant": false,
      "inputs": [
        {
          "name": "id_Program",
          "type": "uint256"
        },
        {
          "name": "id_actor",
          "type": "uint256"
        },
        {
          "name": "weight",
          "type": "uint256"
        }
      ],
      "name": "voteUpdate",
      "outputs": [
        {
          "name": "",
          "type": "bool"
        }
      ],
      "payable": false,
      "stateMutability": "nonpayable",
      "type": "function"
    },
    {
      "constant": false,
      "inputs": [
        {
          "name": "to",
          "type": "address"
        },
        {
          "name": "amount",
          "type": "uint256"
        }
      ],
      "name": "sendCoin",
      "outputs": [
        {
          "name": "",
          "type": "bool"
        }
      ],
      "payable": false,
      "stateMutability": "nonpayable",
      "type": "function"
    },
    {
      "constant": true,
      "inputs": [
        {
          "name": "",
          "type": "uint256"
        }
      ],
      "name": "Programs",
      "outputs": [
        {
          "name": "name",
          "type": "bytes32"
        },
        {
          "name": "start",
          "type": "uint256"
        },
        {
          "name": "end",
          "type": "uint256"
        },
        {
          "name": "number_actors",
          "type": "uint256"
        },
        {
          "name": "one_vote_price",
          "type": "uint256"
        }
      ],
      "payable": false,
      "stateMutability": "view",
      "type": "function"
    },
    {
      "constant": true,
      "inputs": [
        {
          "name": "id",
          "type": "uint256"
        }
      ],
      "name": "getProgram",
      "outputs": [
        {
          "name": "",
          "type": "bytes32"
        },
        {
          "name": "",
          "type": "uint256"
        },
        {
          "name": "",
          "type": "uint256"
        },
        {
          "name": "",
          "type": "uint256"
        }
      ],
      "payable": false,
      "stateMutability": "view",
      "type": "function"
    },
    {
      "constant": false,
      "inputs": [
        {
          "name": "id_program",
          "type": "uint256"
        },
        {
          "name": "name",
          "type": "bytes32"
        }
      ],
      "name": "createActor",
      "outputs": [
        {
          "name": "",
          "type": "bool"
        }
      ],
      "payable": false,
      "stateMutability": "nonpayable",
      "type": "function"
    },
    {
      "constant": true,
      "inputs": [],
      "name": "getNumberProgram",
      "outputs": [
        {
          "name": "",
          "type": "uint256"
        }
      ],
      "payable": false,
      "stateMutability": "view",
      "type": "function"
    },
    {
      "constant": false,
      "inputs": [
        {
          "name": "id_program",
          "type": "uint256"
        },
        {
          "name": "id_actor",
          "type": "uint256"
        }
      ],
      "name": "getVoteCount",
      "outputs": [
        {
          "name": "",
          "type": "uint256"
        }
      ],
      "payable": false,
      "stateMutability": "nonpayable",
      "type": "function"
    },
    {
      "constant": true,
      "inputs": [
        {
          "name": "id_program",
          "type": "uint256"
        },
        {
          "name": "index_actor",
          "type": "uint256"
        }
      ],
      "name": "getActor",
      "outputs": [
        {
          "name": "",
          "type": "bytes32"
        },
        {
          "name": "",
          "type": "uint256"
        }
      ],
      "payable": false,
      "stateMutability": "view",
      "type": "function"
    },
    {
      "constant": true,
      "inputs": [
        {
          "name": "addr",
          "type": "address"
        }
      ],
      "name": "getBalance",
      "outputs": [
        {
          "name": "",
          "type": "uint256"
        }
      ],
      "payable": false,
      "stateMutability": "view",
      "type": "function"
    },
    {
      "inputs": [],
      "payable": false,
      "stateMutability": "nonpayable",
      "type": "constructor"
    },
    {
      "anonymous": false,
      "inputs": [
        {
          "indexed": true,
          "name": "_from",
          "type": "address"
        },
        {
          "indexed": true,
          "name": "_to",
          "type": "address"
        },
        {
          "indexed": false,
          "name": "_value",
          "type": "uint256"
        }
      ],
      "name": "Transfer",
      "type": "event"
    }
  ],
  "bytecode": "0x6060604052341561000f57600080fd5b6000326000806101000a81548173ffffffffffffffffffffffffffffffffffffffff021916908373ffffffffffffffffffffffffffffffffffffffff160217905550620186a0600160008060009054906101000a900473ffffffffffffffffffffffffffffffffffffffff1673ffffffffffffffffffffffffffffffffffffffff1673ffffffffffffffffffffffffffffffffffffffff1681526020019081526020016000208190555060a0604051908101604052807f54686520566f69636500000000000000000000000000000000000000000000006000191681526020014281526020016202a300420181526020016000815260200160018152506003600083815260200190815260200160002060008201518160000190600019169055602082015181600101556040820151816002015560608201518160030155608082015181600401559050506005600360008381526020019081526020016000206003018190555060408051908101604052807f536f6e2054756e67204d545000000000000000000000000000000000000000006000191681526020016000815250600360008381526020019081526020016000206005016000808152602001908152602001600020600082015181600001906000191690556020820151816001015590505060408051908101604052807f4e6f6f205068756f63205468696e680000000000000000000000000000000000600019168152602001600081525060036000838152602001908152602001600020600501600060018152602001908152602001600020600082015181600001906000191690556020820151816001015590505060408051908101604052807f4368697075000000000000000000000000000000000000000000000000000000600019168152602001600081525060036000838152602001908152602001600020600501600060028152602001908152602001600020600082015181600001906000191690556020820151816001015590505060408051908101604052807f4953534143000000000000000000000000000000000000000000000000000000600019168152602001600081525060036000838152602001908152602001600020600501600060038152602001908152602001600020600082015181600001906000191690556020820151816001015590505060408051908101604052807f48756f6e67205472616d00000000000000000000000000000000000000000000600019168152602001600081525060036000838152602001908152602001600020600501600060048152602001908152602001600020600082015181600001906000191690556020820151816001015590505050610b93806104006000396000f3006060604052600436106100a4576000357c0100000000000000000000000000000000000000000000000000000000900463ffffffff168063358804d0146100a95780635c55954f1461010357806390b98a1114610150578063ad332ae9146101aa578063c3ecf89714610205578063d23ff76e14610259578063dad10f61146102a1578063de2e19a0146102ca578063ebde89ad1461030a578063f8b2cb4f14610359575b600080fd5b34156100b457600080fd5b6100e96004808035600019169060200190919080359060200190919080359060200190919080359060200190919050506103a6565b604051808215151515815260200191505060405180910390f35b341561010e57600080fd5b61013660048080359060200190919080359060200190919080359060200190919050506104a3565b604051808215151515815260200191505060405180910390f35b341561015b57600080fd5b610190600480803573ffffffffffffffffffffffffffffffffffffffff16906020019091908035906020019091905050610791565b604051808215151515815260200191505060405180910390f35b34156101b557600080fd5b6101cb6004808035906020019091905050610925565b6040518086600019166000191681526020018581526020018481526020018381526020018281526020019550505050505060405180910390f35b341561021057600080fd5b610226600480803590602001909190505061095b565b60405180856000191660001916815260200184815260200183815260200182815260200194505050505060405180910390f35b341561026457600080fd5b61028760048080359060200190919080356000191690602001909190505061099c565b604051808215151515815260200191505060405180910390f35b34156102ac57600080fd5b6102b4610a82565b6040518082815260200191505060405180910390f35b34156102d557600080fd5b6102f46004808035906020019091908035906020019091905050610a8c565b6040518082815260200191505060405180910390f35b341561031557600080fd5b6103346004808035906020019091908035906020019091905050610ac6565b6040518083600019166000191681526020018281526020019250505060405180910390f35b341561036457600080fd5b610390600480803573ffffffffffffffffffffffffffffffffffffffff16906020019091905050610b1e565b6040518082815260200191505060405180910390f35b6000806000809054906101000a900473ffffffffffffffffffffffffffffffffffffffff1673ffffffffffffffffffffffffffffffffffffffff163373ffffffffffffffffffffffffffffffffffffffff161415610407576000915061049a565b6002600081548092919060010191905055905060a060405190810160405280876000191681526020018681526020018581526020018481526020016001815250600360008381526020019081526020016000206000820151816000019060001916905560208201518160010155604082015181600201556060820151816003015560808201518160040155905050600191505b50949350505050565b600080600080600360008881526020019081526020016000209250600083600001546000191614806104e6575082600101544210806104e55750826002015442115b5b156104f45760009350610787565b6000836005016000888152602001908152602001600020600001546000191614156105225760009350610787565b600091505b8260060160003373ffffffffffffffffffffffffffffffffffffffff1673ffffffffffffffffffffffffffffffffffffffff168152602001908152602001600020600001548210156105e657858360060160003373ffffffffffffffffffffffffffffffffffffffff1673ffffffffffffffffffffffffffffffffffffffff16815260200190815260200160002060010160008481526020019081526020016000205414156105d95760009350610787565b8180600101925050610527565b8260060160003373ffffffffffffffffffffffffffffffffffffffff1673ffffffffffffffffffffffffffffffffffffffff1681526020019081526020016000206000016000815480929190600101919050559050858360060160003373ffffffffffffffffffffffffffffffffffffffff1673ffffffffffffffffffffffffffffffffffffffff16815260200190815260200160002060010160008381526020019081526020016000208190555082600401548502600160003373ffffffffffffffffffffffffffffffffffffffff1673ffffffffffffffffffffffffffffffffffffffff1681526020019081526020016000206000828254039250508190555082600401548502600160008060009054906101000a900473ffffffffffffffffffffffffffffffffffffffff1673ffffffffffffffffffffffffffffffffffffffff1673ffffffffffffffffffffffffffffffffffffffff168152602001908152602001600020600082825401925050819055508483600501600088815260200190815260200160002060010160008282540192505081905550600193505b5050509392505050565b60008060009054906101000a900473ffffffffffffffffffffffffffffffffffffffff1673ffffffffffffffffffffffffffffffffffffffff163373ffffffffffffffffffffffffffffffffffffffff161415156107ee57600080fd5b81600160008060009054906101000a900473ffffffffffffffffffffffffffffffffffffffff1673ffffffffffffffffffffffffffffffffffffffff1673ffffffffffffffffffffffffffffffffffffffff16815260200190815260200160002054101561085f576000905061091f565b81600160008060009054906101000a900473ffffffffffffffffffffffffffffffffffffffff1673ffffffffffffffffffffffffffffffffffffffff1673ffffffffffffffffffffffffffffffffffffffff1681526020019081526020016000206000828254039250508190555081600160008573ffffffffffffffffffffffffffffffffffffffff1673ffffffffffffffffffffffffffffffffffffffff16815260200190815260200160002060008282540192505081905550600190505b92915050565b60036020528060005260406000206000915090508060000154908060010154908060020154908060030154908060040154905085565b600080600080600060036000808152602001908152602001600020905080600001548160010154826002015483600301549450945094509450509193509193565b60008060008060009054906101000a900473ffffffffffffffffffffffffffffffffffffffff1673ffffffffffffffffffffffffffffffffffffffff163373ffffffffffffffffffffffffffffffffffffffff1614156109ff5760009250610a7a565b60036000868152602001908152602001600020915081600301600081548092919060010191905055905060408051908101604052808560001916815260200160008152508260050160008381526020019081526020016000206000820151816000019060001916905560208201518160010155905050600192505b505092915050565b6000600254905090565b6000806003600085815260200190815260200160002090508060050160008481526020019081526020016000206001015491505092915050565b6000806000600360008681526020019081526020016000209050806005016000858152602001908152602001600020600001548160050160008681526020019081526020016000206001015492509250509250929050565b6000600160008373ffffffffffffffffffffffffffffffffffffffff1673ffffffffffffffffffffffffffffffffffffffff1681526020019081526020016000205490509190505600a165627a7a72305820cb166274696340c83d519bab03f2f888f2c9322fa344c3082bd564af7874724d0029",
  "source": "pragma solidity ^0.4.2;\n\ncontract Ballot {\n    address chairperson;\n    mapping (address => uint) balances;\n    event Transfer(address indexed _from, address indexed _to, uint256 _value);\n    struct Voter {\n        uint number_actor;\n        mapping(uint => uint) actors;\n    }\n\n    struct NSP {\n        bytes32 hash_password;\n        bytes32 name;\n    }\n\n    struct Actor {\n        bytes32 name;\n        uint vote_count;\n    }\n\n    struct Program {\n        bytes32 name;\n        uint start;\n        uint end;\n        uint number_actors;\n        uint one_vote_price; // Ballot coin\n        mapping (uint => Actor) actors;\n        mapping(address => Voter) voters;\n    }\n\n    uint number_programs;\n    mapping(uint => Program) public Programs;\n    mapping(uint => NSP) nsps;\n\n    function Ballot() {\n        chairperson = tx.origin;\n        balances[chairperson] = 100000;\n        \n        // bytes32 name = \"Chuong trinh 1\"; \n        // createProgram(name,10,20,0);\n        // uint id_program = 0;\n        // createActor(id_program, \"Thi sinh 1\");\n        // createActor(id_program, \"Thi sinh 2\");\n        // createActor(id_program, \"Thi sinh 3\");\n        // createActor(id_program, \"Thi sinh 4\");\n        // createActor(id_program, \"Thi sinh 5\");\n        uint id_program;\n        Programs[id_program] = Program({\n            name: \"The Voice\",\n            start: now,\n            end: now + 2*1 days,\n            number_actors: 0,\n            one_vote_price: 1\n        });\n        \n        Programs[id_program].number_actors = 5;\n        Programs[id_program].actors[0] = Actor({\n            name: \"Son Tung MTP\",\n            vote_count: 0\n        });\n        Programs[id_program].actors[1] = Actor({\n            name: \"Noo Phuoc Thinh\",\n            vote_count: 0\n        });\n        Programs[id_program].actors[2] = Actor({\n            name: \"Chipu\",\n            vote_count: 0\n        }); \n        Programs[id_program].actors[3] = Actor({\n            name: \"ISSAC\",\n            vote_count: 0\n        }); \n        Programs[id_program].actors[4] = Actor({\n            name: \"Huong Tram\",\n            vote_count: 0\n        }); \n    }\n\n    modifier onlyChairPerson() {\n        require(msg.sender == chairperson);\n        _;\n    }\n\n    function createProgram(bytes32 name, uint start, uint end, uint number_actor) returns (bool) {\n        if(msg.sender == chairperson) {\n            return false;\n        }\n        uint id_program = number_programs++;\n\n        Programs[id_program] = Program({\n            name: name,\n            start: start,\n            end: end,\n            number_actors: number_actor,\n            one_vote_price: 1\n        });\n        return true;\n    }\n\n    function createActor(uint id_program, bytes32 name) returns (bool) {\n        if(msg.sender == chairperson) {\n            return false;\n        }\n\n        Program storage pro = Programs[id_program];\n        uint id_actor = pro.number_actors++;\n        pro.actors[id_actor] = Actor({\n            name: name,\n            vote_count: 0\n        });\n        return true;\n    }\n\n    function sendCoin(address to, uint amount) onlyChairPerson returns (bool) {\n        if(balances[chairperson] < amount) {\n            return false;\n        }\n        balances[chairperson] -= amount;\n        balances[to] += amount;\n        return true;\n    } \n\n    function voteUpdate( uint id_Program, uint id_actor, uint weight) returns (bool) {\n        \n        Program storage e = Programs[id_Program];\n       \n        //NOTE require exist Program\n        if(e.name==\"\" || (now<e.start || now>e.end)){\n            return false;\n        }\n\n        //NOTE require exist actor\n        if(e.actors[id_actor].name==\"\"){\n            return false;\n        }\n\n        // Test voter voted actor\n        for (uint i=0; i < e.voters[msg.sender].number_actor; i++){\n            if(e.voters[msg.sender].actors[i]==id_actor) {\n                return false;\n            }\n        }\n\n        uint index = e.voters[msg.sender].number_actor++;\n        e.voters[msg.sender].actors[index] = id_actor;\n        \n        balances[msg.sender] -= weight*e.one_vote_price;\n        balances[chairperson] += weight*e.one_vote_price;\n        e.actors[id_actor].vote_count += weight;\n        return true;\n    }\n\n    function getVoteCount(uint id_program, uint id_actor) returns (uint){\n         Program storage e = Programs[id_program];\n         return e.actors[id_actor].vote_count;\n    }\n\n    function getBalance(address addr) constant returns (uint) {\n        return balances[addr];\n    }\n\n    function getProgram(uint id) constant returns(bytes32,uint, uint, uint) {\n        Program storage pro = Programs[0];\n        return (pro.name, pro.start, pro.end, pro.number_actors);\n    }\n\n    function getNumberProgram() constant returns(uint) {\n        return number_programs;\n    }\n\n    function getActor(uint id_program, uint index_actor) constant returns(bytes32, uint) {\n        Program storage pro = Programs[id_program];\n        return (pro.actors[index_actor].name, pro.actors[index_actor].vote_count);\n    }\n\n    // function isChair(address addr) returns(bool) {\n    //     return chairperson == addr;\n    // }\n}",
  "sourcePath": "/home/taohansamu/L-BlockChain/angular4-truffle-starter-dapp/contracts/Ballot.sol",
  "compiler": {
    "name": "solc",
    "version": "0.4.18+commit.9cf6e910.Emscripten.clang"
  },
  "schemaVersion": "1.0.1",
  "updatedAt": "2017-11-25T14:52:14.256Z"
}